:020000040000FA
:060000000A128A110C280F
:10000800FE00030EF1000A08F2000A128A11982C69
:100018000A128A110F28F901FA018313203084008B
:1000280040300A128A1132260A128A1183010A12F2
:100038008A11182C0A128A1129260A128A11D0301C
:1000480083120313C9000030CA000A128A110C2651
:100058000A128A11003083120313C900CA000A1257
:100068008A110C260A128A110A128A1120260A12EB
:100078008A110A128A1129260A128A11D13083128A
:100088000313C9000030CA000A128A110C260A128A
:100098008A110130F3000030F4000A128A11402559
:1000A8000A128A1173080A128A11AF250A128A11D4
:1000B80083120313CB00CC014B08AA004C08AB00F9
:1000C8000130F3000030F4000A128A1140250A12A8
:1000D8008A1173080A128A11AF250A128A1183122B
:1000E8000313CB00CC014B08A8004C08A900013031
:1000F800F3000030F4000A128A1140250A128A110E
:1001080073080A128A11AF250A128A11831203137F
:10011800CB00CC014B08A6004C08A7000130F30027
:100128000030F4000A128A1140250A128A1101309F
:10013800F3000030F4000A128A1140250A128A11CD
:1001480073080A128A11AF250A128A11831203133F
:10015800CB00CC014B08A4004C08A5000130F300EB
:100168000030F4000A128A1140250A128A11730815
:100178000A128A11AF250A128A1183120313CB00BF
:10018800CC014B08A2004C08A3000130F30000305A
:10019800F4000A128A1140250A128A1173080A12F9
:1001A8008A11AF250A128A1183120313CB00CC01DE
:1001B8004B08A0004C08A1000A128A1120260A1236
:1001C8008A110A128A1129260A128A11D130831239
:1001D8000313C9000030CA000A128A110C260A1239
:1001E8008A110130F3000030F4000A128A11402508
:1001F8000A128A110A128A1120260A128A11033059
:1002080083120313CD000830CC007630CB00CB0B23
:100218000B29CC0B0B29CD0B0B29000008008312EE
:100228000313D3004930CB004B08CE00E629253014
:1002380054060319202921292D295408CB005308D5
:1002480084004B08831380000130CB004B08D30790
:10025800E629CF010130C807FF30480784000A1299
:100268008A11E0250A128A11D400CB00CC014C086F
:10027800003A03194029E6294B08003A0319F829DE
:10028800643A03194B290D3A03194B29E6294E08FC
:10029800840083130008D100840A0008D2000230C9
:1002A800CB004B08CE07D21F5A295B29642903309B
:1002B800CB004B08CF04D109D209D10A0319D20ABD
:1002C800D401D40A5408CB004B07013E84000A121B
:1002D8008A11E0250A128A11CC000A128A11E02537
:1002E8000A128A11CD004D085202031D7D294C08BF
:1002F800510203188029812982298C290130CB00D9
:100308004B08D40705305406031D8B298C29662910
:100318004F0803390319912992299D292D30CB00C3
:10032800530884004B08831380000130CB004B082E
:10033800D3075408CB004B08D000DD290A30C3008E
:100348000030C4005008CB004B07013E84000A125D
:100358008A11E0250A128A11F3000A128A11E0258F
:100368000A128A11F4005208F6005108F5000A1220
:100378008A11D2230A128A11740883120313C60041
:100388007308C5000A128A115C240A128A118312A2
:1003980003134308303ECC004C08D4005408CB006B
:1003A800530884004B08831380000130CB004B08AE
:1003B800D307FF30CB004B08D007500A031DE529AF
:1003C800E629A2290130C807FF30480784000A122D
:1003D8008A11E0250A128A11CB004B08D400540870
:1003E800031DF729F8291B2953088400831380016A
:1003F80008000A128A1129260A128A11D03083129B
:100408000313C9000030CA000A128A110C260A1206
:100418008A11003083120313C900CA000A128A1114
:100428000C260A128A11831203132A080A128A1147
:100438000E250A128A1183120313CB00CC014B0834
:10044800C9004C08CA000A128A110C260A128A111D
:100458008312031328080A128A110E250A128A1118
:1004680083120313CB00CC014B08C9004C08CA0007
:100478000A128A110C260A128A11831203132608FB
:100488000A128A110E250A128A1183120313CB004D
:10049800CC014B08C9004C08CA000A128A110C2664
:1004A8000A128A11013083120313C9000030CA00EE
:1004B8000A128A110C260A128A11831203132408BD
:1004C8000A128A110E250A128A1183120313CB000D
:1004D800CC014B08C9004C08CA000A128A110C2624
:1004E8000A128A118312031322080A128A110E258E
:1004F8000A128A1183120313CB00CC014B08C900DE
:100508004C08CA000A128A110C260A128A11831290
:10051800031320080A128A110E250A128A1183125F
:100528000313CB00CC014B08C9004C08CA000A12BF
:100538008A110C260A128A110A128A1120260A1216
:100548008A11080083120313C101F41FAC2AAD2AD3
:10055800B42AF309F409F30A0319F40AC101C10A18
:10056800F61FB72AB82AC12AF509F609F50A0319A8
:10057800F60A0130F7007708C106C201C301730803
:1005880074040319C82AC92A002BC001C00AD72A33
:1005980001300310F30DF40DFF3E031DCD2A013089
:1005A800F7007708C007F41FDA2ADB2ACC2A0130C3
:1005B8000310C20DC30DFF3E031DDC2A740876022A
:1005C800031DE82A73087502031CEB2AEC2AF32A98
:1005D8007308F5027408031CF603F602421401308E
:1005E8000310F40CF30CFF3E031DF42A0130C00283
:1005F800031DFF2A002BDB2A41080319042B052BB6
:100608000A2BC209C309C20A0319C30A4308F40022
:100618004208F30008000030F7000030F600003010
:10062800F5000030F4008312031343084204410428
:1006380040040319202B212B6E2BF801F80A312BCB
:100648000130F3000310C00DC10DC20DC30DF30B33
:10065800262B0130F3007308F807C31F342B352B02
:10066800242B0130F3000310F40DF50DF60DF70DF2
:10067800F30B372B43084702031D4C2B4208460255
:10068800031D4C2B41084502031D4C2B4008440216
:10069800031C4F2B502B5F2B4008C4024108031C3E
:1006A800410FC5024208031C420FC6024308031C3F
:1006B800430FC702741401300310C30CC20CC10CE1
:1006C800C00CFF3E031D602B0130F802031D6D2B8B
:1006D8006E2B352B7708C3007608C2007508C10059
:1006E8007408C000080083120313C101F61F7D2B94
:1006F8007E2B852BF509F609F50A0319F60AC101BF
:10070800C10AF41F882B892B8E2BF309F409F30AED
:100718000319F40A730874040319932B942BC32B3D
:10072800C001C00AA22B01300310F30DF40DFF3EE7
:10073800031D982B0130F7007708C007F41FA52B7D
:10074800A62B972B74087602031DAC2B7308750231
:10075800031CAF2BB02BB62B7308F5027408031CCF
:10076800F603F60201300310F40CF30CFF3E031DF0
:10077800B72B0130C002031DC22BC32BA62B410887
:100788000319C72BC82BCD2BF509F609F50A031950
:10079800F60A7608F4007508F300080083120313BC
:1007A800C101C201730874040319DB2BDC2B132C61
:1007B800C001C00AEA2B01300310F30DF40DFF3E0F
:1007C800031DE02B0130F7007708C007F41FED2B5D
:1007D800EE2BDF2B01300310C10DC20DFF3E031DB0
:1007E800EF2B74087602031DFB2B73087502031C9C
:1007F800FE2BFF2B062C7308F5027408031CF60366
:10080800F602411401300310F40CF30CFF3E031DF3
:10081800072C0130C002031D122C132CEE2B4208AA
:10082800F4004108F30008000A128A116E250A1222
:100838008A110A128A114A260A128A110A128A1180
:1008480016260A128A110A128A113A260A128A11DF
:100858000A128A11FD210A128A110A128A111E200F
:100868000A128A110B3083120313D5005508C800E9
:100878002B08CA002A08C9002C300A128A11132131
:100888000A128A112C300A128A1191250A128A1129
:100898000D300A128A1100260A128A110A300A1229
:1008A8008A1100260A128A11312C0A128A110C2880
:1008B80083120313430844040319632C642C932CF8
:1008C800C701C70A722C01300310C30DC40DFF3EC7
:1008D800031D682C0130F8007808C707C41F752C61
:1008E800762C672C44084602031D7C2C43084502DD
:1008F800031C7F2C802C862C4308C5024408031C4B
:10090800C603C60201300310C40CC30CFF3E031D0E
:10091800872C0130C702031D922C932C762C460895
:10092800C4004508C3000800831203138C1E9D2CC5
:100938009E2CCD2C8C120A128A1142260A128A1178
:10094800F0007008F9002B307906031DAC2CAD2C93
:10095800B12C831203130614BA2C2D307906031D0B
:10096800B62CB72CBA2C8312031306103130790633
:10097800031DBF2CC02CC42C831203138614CD2C4A
:1009880032307906031DC92CCA2CCD2C83120313CF
:10099800861072088A00710E8300FE0E7E0E090012
:1009A80028308312031394008316031391018312D2
:1009B80003134808CC004908CD004A08CE004B086C
:1009C800CF0002300310CC0DCD0DCE0DCF0DFF3E64
:1009D800031DE62C4F08C3004E08C2004D08C10095
:1009E8004C08C0000030C7007A30C6001230C5007D
:1009F8000030C4000A128A110F230A128A118312C6
:100A080003134008FF3E83160313930094018715D0
:100A180007160800F8000A30F3000030F4007808E0
:100A280083120313C400C5014408F5004508F60005
:100A38000A128A11A6220A128A1173088312031352
:100A4800C60004300310C60DFF3E031D262D0A30D4
:100A5800F3000030F4007808C700C8014708F50023
:100A68004808F6000A128A1177230A128A117308B5
:100A780083120313460708000A128A11F3250A1283
:100A88008A118316031391150A128A11F3250A1283
:100A98008A11831203131308F500F6017508F7008D
:100AA8007608F8000A128A11F3250A128A117303CC
:100AB8007404031D602D612D652D83160313911297
:100AC800682D83160313911611167808F400770819
:100AD800F30008008316031788018901831603139E
:100AE8008601831203138601831603130F168F16CC
:100AF8000F170B178C16831203138C128B170030E9
:100B0800CB000130CA008630C900A030C8000A12E4
:100B18008A11D4240A128A110800F500F601A32DBF
:100B280076087507F4007408840000080A128A1110
:100B380000260A128A110130F4007408F6077608B4
:100B48007507F4007408840083130008031DAD2D95
:100B5800AE2D942D0800F7000F307705831203138C
:100B6800C0000A30C1004108F3007708C200043011
:100B78000310C20CFF3E031DBC2D42080A128A1145
:100B8800CB250A128A118312031340070800F600C6
:100B9800F501761CD02DD12DD52D7308F4007408DD
:100BA800F5070310F30D0310F60C7608031DDD2D71
:100BB800DE2DCD2D7508080005308A000408840A4A
:100BC80082070034013400340A34003464340034B9
:100BD800E83403341034273425346434003483165D
:100BE80003131419F82DF92DF32D11081F39031DBE
:100BF800FE2DFF2DF32D0800F30083160313981C18
:100C0800062E072E012E730883120313990008007D
:100C18000A128A11F3250A128A118312031349084A
:100C280093000800831603139813181398161812C4
:100C380018119810181008000A128A11F3250A12C0
:100C48008A1183160313111508000A128A11F32555
:100C58000A128A1183160313111408006400800114
:100C6800840A0406031900340406332E831203137E
:100C780098171813981218169A010800831203136C
:100C88008C1E472E482E422E1A0808000C30831658
:060C98000313990008009F
:04400E00D420FF3F7C
:00000001FF
