:020000040000FA
:060000000A128A11ED2F27
:1008FC000A128A119A240A128A11831603131114EC
:10090C0008000A128A119A240A128A1183160313F8
:10091C00111508000A128A119A240A128A118312DC
:10092C0003132E08930008008316031314199F2C2D
:10093C00A02C9A2C11081F39031DA52CA62C9A2C1F
:10094C000800F300F201731CAC2CAD2CB12C700818
:10095C00F1007108F2070310F00D0310F30C73088B
:10096C00031DB92CBA2CA92C72080800F7000F3003
:10097C007705F4000A30F5007508F0007708F600EA
:10098C0004300310F60CFF3E031DC72C76080A1228
:10099C008A11A7240A128A117407080083160317F8
:1009AC0088018901831603138601831203138601C0
:1009BC000030B0000130AF008630AE00A030AD008A
:1009CC000A128A114A250A128A1108000A128A117F
:1009DC009A240A128A118316031391150A128A118A
:1009EC009A240A128A11831203131308F200F301DA
:1009FC007208F4007308F5000A128A119A240A127C
:100A0C008A1170037104031D0C2D0D2D112D8316ED
:100A1C0003139112142D83160313911611167508D6
:100A2C00F1007408F000080083120313AD000A30C3
:100A3C00F0000030F1002D08F900FA017908F200FD
:100A4C007A08F3000A128A1141260A128A117008D8
:100A5C00FB0004300310FB0DFF3E031D302D0A304C
:100A6C00F0000030F100831203132D08FC00FD018F
:100A7C007C08F2007D08F3000A128A1182250A1202
:100A8C008A1170087B070800283083120313940026
:100A9C00831603139101831203132D08B1002E0842
:100AAC00B2002F08B3003008B40002300310B10DAF
:100ABC00B20DB30DB40DFF3E031D5C2D3408F300D5
:100ACC003308F2003208F1003108F0000030F70072
:100ADC007A30F6001230F5000030F4000A128A1158
:100AEC00DB250A128A117008FF3E8316031393004C
:100AFC009401871507160800F601F31F862D872D24
:100B0C008E2DF209F309F20A0319F30AF601F60A1B
:100B1C00F11F912D922D972DF009F109F00A03196F
:100B2C00F10A7008710403199C2D9D2DCC2DF50133
:100B3C00F50AAB2D01300310F00DF10DFF3E031D36
:100B4C00A12D0130F4007408F507F11FAE2DAF2D67
:100B5C00A02D71087302031DB52D70087202031CC1
:100B6C00B82DB92DBF2D7008F2027108031CF303C8
:100B7C00F30201300310F10CF00CFF3E031DC02DED
:100B8C000130F502031DCB2DCC2DAF2D76080319AA
:100B9C00D02DD12DD62DF209F309F20A0319F30A3F
:100BAC007308F1007208F00008000030FC000030FF
:100BBC00FB000030FA000030F90073087204710475
:100BCC0070040319EA2DEB2D382EFD01FD0AFB2DC7
:100BDC000130F8000310F00DF10DF20DF30DF80BD0
:100BEC00F02D0130F8007808FD07F31FFE2DFF2DC6
:100BFC00EE2D0130F8000310F90DFA0DFB0DFC0D74
:100C0C00F80B012E73087702031D162E720876025C
:100C1C00031D162E71087502031D162E7008740222
:100C2C00031C192E1A2E292E7008F4027108031CAD
:100C3C00710FF5027208031C720FF6027308031C85
:100C4C00730FF702791401300310F30CF20CF10C52
:100C5C00F00CFF3E031D2A2E0130FD02031D372E22
:100C6C00382EFF2D7C08F3007B08F2007A08F10087
:100C7C007908F0000800F601F11F452E462E4D2E86
:100C8C00F009F109F00A0319F10AF601F60AF31F4B
:100C9C00502E512E5A2EF209F309F20A0319F30AB7
:100CAC000130F4007408F606F701F80170087104BD
:100CBC000319612E622E992EF501F50A702E013062
:100CCC000310F00DF10DFF3E031D662E0130F400F4
:100CDC007408F507F11F732E742E652E0130031066
:100CEC00F70DF80DFF3E031D752E71087302031DE1
:100CFC00812E70087202031C842E852E8C2E700897
:100D0C00F2027108031CF303F30277140130031091
:100D1C00F10CF00CFF3E031D8D2E0130F502031D6E
:100D2C00982E992E742E760803199D2E9E2EA32E86
:100D3C00F709F809F70A0319F80A7808F100770897
:100D4C00F00008000A128A11D4240A128A110A121D
:100D5C008A113F270A128A110A128A117E240A125A
:100D6C008A11D03083120313AE000030AF000A1288
:100D7C008A1190240A128A11003083120313AE00D8
:100D8C00AF000A128A1190240A128A110A128A11CF
:100D9C0087240A128A110A128A117E240A128A11D5
:100DAC00D13083120313AE000030AF000A128A1147
:100DBC0090240A128A110130F0000030F1000A125E
:100DCC008A11EC240A128A11710883120313AB00E6
:100DDC007008AA000130F0000030F1000A128A11EC
:100DEC00EC240A128A110A128A1187240A128A1117
:100DFC000A128A117E240A128A11D130831203132B
:100E0C00AE000030AF000A128A1190240A128A1127
:100E1C00003083120313AE00AF000A128A11902423
:100E2C000A128A110A128A1187240A128A110330B3
:100E3C0083120313B7000830B6007630B500B50B3B
:100E4C00252FB60B252FB70B252F0000831203136C
:100E5C002A080A128A11BC240A128A11831203135B
:100E6C00B5003508AC002C088600B22E0A128A1187
:100E7C0000280A128A117E240A128A11D030831299
:100E8C000313AE000030AF000A128A1190240A122C
:100E9C008A11003083120313AE00AF000A128A11BC
:100EAC0090240A128A11831203132A080A128A1137
:100EBC001A250A128A1183120313B000B1013008EB
:100ECC00AE003108AF000A128A1190240A128A115E
:100EDC0000300A128A111A250A128A11831203137E
:100EEC00B000B1013008AE003108AF000A128A110F
:100EFC0090240A128A1100300A128A111A250A1239
:100F0C008A1183120313B000B1013008AE0031080E
:100F1C00AF000A128A1190240A128A11013083122E
:100F2C000313AE000030AF000A128A1190240A128B
:100F3C008A1100300A128A111A250A128A11831298
:100F4C000313B000B1013008AE003108AF000A1233
:100F5C008A1190240A128A1100300A128A111A2559
:100F6C000A128A1183120313B000B1013008AE00CB
:100F7C003108AF000A128A1190240A128A1100302B
:100F8C000A128A111A250A128A1183120313B0004D
:100F9C00B1013008AE003108AF000A128A1190245A
:100FAC000A128A110A128A1187240A128A11033032
:100FBC0083120313B2000830B1007630B000B00BCE
:100FCC00E52FB10BE52FB20BE52F000008008312C3
:100FDC000313A001A101A201A301A401A501A60173
:100FEC00A701A801A901AA01AB01AC0183010A1256
:040FFC008A11A82E80
:04400E00D620FF3F7A
:00000001FF
