:020000040000FA
:060000000A128A11ED2F27
:10091C000A128A11AA240A128A11831603131114BB
:10092C0008000A128A11AA240A128A1183160313C8
:10093C00111508000A128A11AA240A128A118312AC
:10094C0003132E0893000800831603131419AF2CFD
:10095C00B02CAA2C11081F39031DB52CB62CAA2CAF
:10096C0008008316031788018901003083120313D2
:10097C00B0000130AF008630AE00A030AD000A12DE
:10098C008A1156250A128A110800F300F201731C11
:10099C00D02CD12CD52C7008F1007108F207031063
:1009AC00F00D0310F30C7308031DDD2CDE2CCD2C85
:1009BC0072080800F7000F307705F4000A30F500D4
:1009CC007508F0007708F60004300310F60CFF3EB3
:1009DC00031DEB2C76080A128A11CB240A128A11F9
:1009EC00740708000A128A11AA240A128A118316A3
:1009FC00031391150A128A11AA240A128A1183125E
:100A0C0003131308F200F3017208F4007308F500E5
:100A1C000A128A11AA240A128A1170037104031D86
:100A2C00182D192D1D2D831603139112202D8316AD
:100A3C000313911611167508F1007408F0000800E4
:100A4C0083120313AD000A30F0000030F1002D08C2
:100A5C00F900FA017908F2007A08F3000A128A11F7
:100A6C004D260A128A117008FB0004300310FB0D8E
:100A7C00FF3E031D3C2D0A30F0000030F1008312C4
:100A8C0003132D08FC00FD017C08F2007D08F30027
:100A9C000A128A118E250A128A1170087B07080027
:100AAC0028308312031394008316031391018312CD
:100ABC0003132D08B1002E08B2002F08B300300824
:100ACC00B40002300310B10DB20DB30DB40DFF3EE6
:100ADC00031D682D3408F3003308F2003208F100CE
:100AEC003108F0000030F7007A30F6001230F500D3
:100AFC000030F4000A128A11E7250A128A117008D4
:100B0C00FF3E831603139300940187150716080004
:100B1C00F601F31F922D932D9A2DF209F309F20A87
:100B2C000319F30AF601F60AF11F9D2D9E2DA32D34
:100B3C00F009F109F00A0319F10A7008710403199C
:100B4C00A82DA92DD82DF501F50AB72D01300310CC
:100B5C00F00DF10DFF3E031DAD2D0130F4007408B6
:100B6C00F507F11FBA2DBB2DAC2D71087302031DB7
:100B7C00C12D70087202031CC42DC52DCB2D70081D
:100B8C00F2027108031CF303F30201300310F10CA1
:100B9C00F00CFF3E031DCC2D0130F502031DD72DAB
:100BAC00D82DBB2D76080319DC2DDD2DE22DF20995
:100BBC00F309F20A0319F30A7308F1007208F00042
:100BCC0008000030FC000030FB000030FA00003060
:100BDC00F90073087204710470040319F62DF72DD3
:100BEC00442EFD01FD0A072E0130F8000310F00D14
:100BFC00F10DF20DF30DF80BFC2D0130F800780817
:100C0C00FD07F31F0A2E0B2EFA2D0130F8000310EE
:100C1C00F90DFA0DFB0DFC0DF80B0D2E7308770278
:100C2C00031D222E72087602031D222E71087502F6
:100C3C00031D222E70087402031C252E262E352E21
:100C4C007008F4027108031C710FF5027208031C82
:100C5C00720FF6027308031C730FF702791401303C
:100C6C000310F30CF20CF10CF00CFF3E031D362EAE
:100C7C000130FD02031D432E442E0B2E7C08F30085
:100C8C007B08F2007A08F1007908F0000800F60100
:100C9C00F11F512E522E592EF009F109F00A0319A9
:100CAC00F10AF601F60AF31F5C2E5D2E662EF20990
:100CBC00F309F20A0319F30A0130F4007408F6067A
:100CCC00F701F8017008710403196D2E6E2EA52E14
:100CDC00F501F50A7C2E01300310F00DF10DFF3EED
:100CEC00031D722E0130F4007408F507F11F7F2EDE
:100CFC00802E712E01300310F70DF80DFF3E031DF1
:100D0C00812E71087302031D8D2E70087202031C54
:100D1C00902E912E982E7008F2027108031CF3038A
:100D2C00F302771401300310F10CF00CFF3E031D9D
:100D3C00992E0130F502031DA42EA52E802E7608C7
:100D4C000319A92EAA2EAF2EF709F809F70A0319D1
:100D5C00F80A7808F1007708F00008000A128A11E6
:100D6C00B7240A128A110A128A1149270A128A1107
:100D7C000A128A118E240A128A11D030831203139C
:100D8C00AE000030AF000A128A11A0240A128A1198
:100D9C00003083120313AE00AF000A128A11A02494
:100DAC000A128A110A128A1197240A128A110A123B
:100DBC008A118E240A128A11D13083120313AE00C9
:100DCC000030AF000A128A11A0240A128A110130D5
:100DDC00F0000030F1000A128A11F8240A128A116C
:100DEC00710883120313AB007008AA000130F000E5
:100DFC000030F1000A128A11F8240A128A110A1220
:100E0C008A1197240A128A110A128A118E240A1244
:100E1C008A11D13083120313AE000030AF000A12D6
:100E2C008A11A0240A128A11003083120313AE0017
:100E3C00AF000A128A11A0240A128A110A128A110E
:100E4C0097240A128A11033083120313B700083057
:100E5C00B6007630B500B50B312FB60B312FB70B72
:100E6C00312F0000831203132A080A128A11E0247E
:100E7C000A128A1183120313B5003508AC00BE2E7A
:100E8C000A128A1100280A128A118E240A128A1157
:100E9C00D03083120313AE000030AF000A128A1157
:100EAC00A0240A128A11831203132A080A128A1127
:100EBC0026250A128A1183120313B000B1013008DF
:100ECC00AE003108AF000A128A11A0240A128A114E
:100EDC0000300A128A1126250A128A118312031372
:100EEC00B000B1013008AE003108AF000A128A110F
:100EFC00A0240A128A1100300A128A1126250A121D
:100F0C008A1183120313B000B1013008AE0031080E
:100F1C00AF000A128A11A0240A128A11013083121E
:100F2C000313AE000030AF000A128A11A0240A127B
:100F3C008A1100300A128A1126250A128A1183128C
:100F4C000313B000B1013008AE003108AF000A1233
:100F5C008A11A0240A128A1100300A128A1126253D
:100F6C000A128A1183120313B000B1013008AE00CB
:100F7C003108AF000A128A11A0240A128A1100301B
:100F8C000A128A1126250A128A1183120313B00041
:100F9C00B1013008AE003108AF000A128A11A0244A
:100FAC000A128A110A128A1197240A128A11033022
:100FBC0083120313B2000830B1007630B000B00BCE
:100FCC00E52FB10BE52FB20BE52F000008008312C3
:100FDC000313A001A101A201A301A401A501A60173
:100FEC00A701A801A901AA01AB01AC0183010A1256
:040FFC008A11B42E74
:04400E00D620FF3F7A
:00000001FF
