:020000040000FA
:060000000A128A110C280F
:10000800FE00030EF1000A08F2000A128A119F2A64
:100018000A128A110F28F901FA018313203084008B
:100028003E300A128A11DE220A128A1183010A124C
:100038008A112C2A83120313D1004730C9004908BA
:10004800CC00F1282530520603192B282C283828F3
:100058005208C90051088400490883138000013000
:10006800C9004908D107F128CD010130C607FF3082
:10007800460784000A128A11B5220A128A11D20090
:10008800C900CA014A08003A03194B28F12849084F
:10009800003A03190329643A031956280D3A03193B
:1000A8005628F1284C08840083130008CF00840ADE
:1000B8000008D0000230C9004908CC07D01F6528C5
:1000C80066286F280330C9004908CD04CF09D00934
:1000D800CF0A0319D00AD201D20A5208C900490727
:1000E800013E84000A128A11B5220A128A11CA0036
:1000F8000A128A11B5220A128A11CB004B08500243
:10010800031D88284A084F0203188B288C288D283D
:1001180097280130C9004908D20705305206031D47
:100128009628972871284D08033903199C289D287B
:10013800A8282D30C900510884004908831380007D
:100148000130C9004908D1075208C9004908CE0042
:10015800E8280A30C1000030C2004E08C90049072B
:10016800013E84000A128A11B5220A128A11F3008C
:100178000A128A11B5220A128A11F4005008F600F0
:100188004F08F5000A128A1170210A128A117408A0
:1001980083120313C4007308C3000A128A11B6211C
:1001A8000A128A11831203134108303ECA004A0812
:1001B800D2005208C90051088400490883138000FE
:1001C8000130C9004908D107FF30C9004908CE07E6
:1001D8004E0A031DF028F128AD280130C607FF306C
:1001E800460784000A128A11B5220A128A11C90028
:1001F8004908D2005208031D02290329262851085C
:1002080084008313800108000030F7000030F600F6
:100218000030F5000030F400831203134108400455
:100228003F043E04031919291A296729F801F80A15
:100238002A290130F3000310BE0DBF0DC00DC10DFA
:10024800F30B1F290130F3007308F807C11F2D298C
:100258002E291D290130F3000310F40DF50DF60DBC
:10026800F70DF30B302941084502031D45294008C5
:100278004402031D45293F084302031D45293E0842
:100288004202031C4829492958293E08C2023F084E
:10029800031C3F0FC3024008031C400FC40241085F
:1002A800031C410FC502741401300310C10CC00CAB
:1002B800BF0CBE0CFF3E031D59290130F802031D77
:1002C800662967292E297708C1007608C0007508B5
:1002D800BF007408BE00080083120313BF01C001E9
:1002E80073087404031979297A29B129BE01BE0A51
:1002F800882901300310F30DF40DFF3E031D7E29FC
:100308000130F7007708BE07F41F8B298C297D2957
:1003180001300310BF0DC00DFF3E031D8D29740869
:100328007602031D992973087502031C9C299D29CF
:10033800A4297308F5027408031CF603F6023F1497
:1003480001300310F40CF30CFF3E031DA529013006
:10035800BE02031DB029B1298C294008F4003F08CA
:10036800F300080083120313410842040319BD294E
:10037800BE29ED29C501C50ACC2901300310C10DDC
:10038800C20DFF3E031DC2290130F8007808C507D9
:10039800C21FCF29D029C12942084402031DD629EA
:1003A80041084302031CD929DA29E0294108C3027C
:1003B8004208031CC403C40201300310C20CC10C60
:1003C800FF3E031DE1290130C502031DEC29ED297B
:1003D800D0294408C2004308C1000800283083120D
:1003E8000313940083160313910183120313460821
:1003F800CA004708CB004808CC004908CD000230A5
:100408000310CA0DCB0DCC0DCD0DFF3E031D042AE4
:100418004D08C1004C08C0004B08BF004A08BE0088
:100428000030C5007A30C4001230C3000030C2006A
:100438000A128A1108210A128A11831203133E082C
:10044800FF3E8316031393009401871507160800CF
:100458000A128A115E220A128A110A128A11F622D7
:100468000A128A110A128A11D4220A128A110A124D
:100478008A11E6220A128A110A3083120313D40061
:100488000030D5000B30D3005308C6000A30C7002F
:100498000030C8002A300A128A111E200A128A1156
:1004A8002A300A128A1181220A128A11402A0A1253
:1004B8008A110C28831603178801890183160313F0
:1004C8008601831203138601831603130F168F16F2
:1004D8000F170B178C16831203138C128B1700300F
:1004E800C9000130C8008630C700A030C6000A1213
:1004F8008A11F2210A128A110800F500F601932ADE
:1005080076087507F4007408840000080A128A1136
:10051800C8220A128A110130F4007408F607760816
:100528007507F4007408840083130008031D9D2ACE
:100538009E2A842A0800831203138C1EA42AA52A43
:10054800AE2A8C120A128A11EE220A128A11F000BF
:100558007008F90072088A00710E8300FE0E7E0E84
:10056800090002308A000408840A82070034013432
:1005780000340A34003464340034E834033410346A
:100588002734253464340034F30083160313981C8D
:10059800CE2ACF2AC92A73088312031399000800A8
:1005A8008316031398131813981618121811981015
:1005B8001810080064008001840A04060319003436
:1005C8000406DF2A831203139817181398121816B3
:1005D8009A010800831203138C1EF32AF42AEE2AC8
:0E05E8001A0808000C3083160313990008004F
:04400E00D420FF3F7C
:00000001FF
