:020000040000FA
:060000000A128A110C280F
:10000800FE00030EF1000A08F2000A128A112C2ED3
:100018000A128A110F28F801F901FA018313203016
:1000280084003F300A128A1597270A128A11830121
:100038000A128A11B02C0A128A159F270A128A11ED
:10004800D03083120313C9000030CA000A128A157F
:10005800BB270A128A11003083120313C900CA0091
:100068000A128A15BB270A128A110A128A15A827AA
:100078000A128A110A128A159F270A128A11D13088
:1000880083120313C9000030CA000A128A15BB275D
:100098000A128A110130F3000030F4000A128A11A2
:1000A800D4260A128A1173080A128A11DF270A1243
:1000B8008A1183120313CB00CC014B08A8004C080B
:1000C800A9000130F3000030F4000A128A11D42686
:1000D8000A128A1173080A128A11DF270A128A1172
:1000E80083120313CB00CC014B08F8004C08F9002D
:1000F8000130F3000030F4000A128A11D4260A12E3
:100108008A1173080A128A11DF270A128A118312C8
:100118000313CB00CC014B08A6004C08A700013004
:10012800F3000030F4000A128A11D4260A128A1148
:100138000130F3000030F4000A128A11D4260A12A2
:100148008A1173080A128A11DF270A128A11831288
:100158000313CB00CC014B08A4004C08A5000130C8
:10016800F3000030F4000A128A11D4260A128A1108
:1001780073080A128A11DF270A128A1183120313DD
:10018800CB00CC014B08A2004C08A3000130F300BF
:100198000030F4000A128A11D4260A128A11730850
:1001A8000A128A11DF270A128A1183120313CB005D
:1001B800CC014B08A0004C08A1000A128A15A827F8
:1001C8000A128A110A128A159F270A128A11D13037
:1001D80083120313C9000030CA000A128A15BB270C
:1001E8000A128A110130F3000030F4000A128A1151
:1001F800D4260A128A110A128A15A8270A128A1105
:10020800033083120313CD000830CC007630CB00C6
:10021800CB0B0C29CC0B0C29CD0B0C2900000800AA
:1002280083120313D3004930CB004B08CE00E729D3
:10023800253054060319212922292E295408CB00D8
:10024800530884004B08831380000130CB004B080F
:10025800D307E729CF010130C807FF3048078400DA
:100268000A128A1500200A128A11D400CB00CC0188
:100278004C08003A03194129E7294B08003A0319A9
:10028800F929643A03194C290D3A03194C29E7292D
:100298004E08840083130008D100840A0008D200A5
:1002A8000230CB004B08CE07D21F5B295C29652999
:1002B8000330CB004B08CF04D109D209D10A031966
:1002C800D20AD401D40A5408CB004B07013E84005B
:1002D8000A128A1500200A128A11CC000A128A15FD
:1002E80000200A128A11CD004D085202031D7E29F2
:1002F8004C08510203188129822983298D2901304C
:10030800CB004B08D40705305406031D8C298D29D2
:1003180067294F0803390319922993299E292D30FB
:10032800CB00530884004B08831380000130CB00B6
:100338004B08D3075408CB004B08D000DE290A30FD
:10034800C2000030C3005008CB004B07013E8400B8
:100358000A128A1500200A128A11F3000A128A1555
:1003680000200A128A11F4005208F6005108F5001C
:100378000A128A116C250A128A117408831203134F
:10038800C5007308C4000A128A11F0250A128A11DE
:10039800831203134208303ECC004C08D4005408A2
:1003A800CB00530884004B08831380000130CB0036
:1003B8004B08D307FF30CB004B08D007500A031D6A
:1003C800E629E729A3290130C807FF304807840038
:1003D8000A128A1500200A128A11CB004B08D40091
:1003E8005408031DF829F9291C295308840083138C
:1003F800800108000A30F3000030F4008312031370
:100408002908F6002808F5000A128A1111250A128F
:100418008A11730883120313C3004308C4000A3007
:10042800F3000030F4002908F6002808F5000A1245
:100438008A11DF230A128A11730883120313C30077
:100448004308C5000A30F3000030F4007908F600CC
:100458007808F5000A128A1111250A128A11730800
:1004680083120313C3004308C6000A30F3000030A8
:10047800F4007908F6007808F5000A128A11DF23DB
:100488000A128A11730883120313C3004308C700B2
:100498000A30F3000030F4002708F6002608F500BB
:1004A8000A128A1111250A128A117308831203137A
:1004B800C3004308C8000A30F3000030F4002708DE
:1004C800F6002608F5000A128A11DF230A128A119B
:1004D800730883120313C3004308C900F701F70A1E
:1004E80001300A128A115C270A128A110B300A128B
:1004F8008A1133270A128A11831203134908303EDE
:100508000A128A11C2270A128A1183120313480891
:10051800303E0A128A11C2270A128A113A300A1288
:100528008A11C2270A128A11831203134708303E20
:100538000A128A11C2270A128A1183120313460863
:10054800303E0A128A11C2270A128A113A300A1258
:100558008A11C2270A128A11831203134508303EF2
:100568000A128A11C2270A128A1183120313440835
:10057800303E0A128A11C2270A128A1108000A128A
:100588008A159F270A128A11D03083120313C900D3
:100598000030CA000A128A15BB270A128A110030D5
:1005A80083120313C900CA000A128A15BB270A124C
:1005B8008A118312031328080A128A11A2260A1222
:1005C8008A1183120313CB00CC014B08C9004C08D5
:1005D800CA000A128A15BB270A128A1178080A1259
:1005E8008A11A2260A128A1183120313CB00CC01A6
:1005F8004B08C9004C08CA000A128A15BB270A1200
:100608008A118312031326080A128A11A2260A12D3
:100618008A1183120313CB00CC014B08C9004C0884
:10062800CA000A128A15BB270A128A1101308312DE
:100638000313C9000030CA000A128A15BB270A1220
:100648008A118312031324080A128A11A2260A1295
:100658008A1183120313CB00CC014B08C9004C0844
:10066800CA000A128A15BB270A128A1183120313B9
:1006780022080A128A11A2260A128A118312031367
:10068800CB00CC014B08C9004C08CA000A128A15D5
:10069800BB270A128A118312031320080A128A112F
:1006A800A2260A128A1183120313CB00CC014B082D
:1006B800C9004C08CA000A128A15BB270A128A11F7
:1006C8000A128A15A8270A128A11080034308312E0
:1006D8000313C000F130BF00BF0B702BC00B702B91
:1006E80030300A128A1182270A128A110D308312B9
:1006F8000313C000FB30BF00BF0B802BC00B802B47
:1007080030300A128A1182270A128A114130831264
:100718000313BF00BF0B8E2B912B30300A128A11A6
:1007280082270A128A11413083120313BF00BF0BBC
:100738009B2B9E2B38300A128A1182270A128A11A3
:10074800273083120313BF00BF0BA82B08300A12EF
:100758008A1182270A128A11273083120313BF00D5
:10076800BF0BB42B01300A128A1182270A128A1190
:100778000D3083120313C000FB30BF00BF0BC22B28
:10078800C00BC22B06300A128A1182270A128A115C
:10079800273083120313BF00BF0BD02B0C300A1273
:1007A8008A1182270A128A11273083120313BF0085
:1007B800BF0BDC2B080083120313C001F41FE52BC9
:1007C800E62BED2BF309F409F30A0319F40AC00127
:1007D800C00AF61FF02BF12BFA2BF509F609F50ADA
:1007E8000319F60A0130F7007708C006C101C201F3
:1007F800730874040319012C022C392CBF01BF0A99
:10080800102C01300310F30DF40DFF3E031D062CD0
:100818000130F7007708BF07F41F132C142C052CA0
:1008280001300310C10DC20DFF3E031D152C7408C5
:100838007602031D212C73087502031C242C252C19
:100848002C2C7308F5027408031CF603F6024114F5
:1008580001300310F40CF30CFF3E031D2D2C013066
:10086800BF02031D382C392C142C400803193D2CC9
:100878003E2C432CC109C209C10A0319C20A420805
:10088800F4004108F3000800003083120313CA0083
:100898000030C9000030C8000030C70042084104D9
:1008A80040043F040319592C5A2CA72CCB01CB0A1E
:1008B8006A2C0130F3000310BF0DC00DC10DC20D2D
:1008C800F30B5F2C0130F3007308CB07C21F6D2CAC
:1008D8006E2C5D2C0130F3000310C70DC80DC90D37
:1008E800CA0DF30B702C42084602031D852C4108E3
:1008F8004502031D852C40084402031D852C3F0832
:100908004302031C882C892C982C3F08C3024008FA
:10091800031C400FC4024108031C410FC5024208D2
:10092800031C420FC602471401300310C20CC10C4D
:10093800C00CBF0CFF3E031D992C0130CB02031DD8
:10094800A62CA72C6E2C4A08C2004908C1004808EA
:10095800C0004708BF0008000A128A1104270A12BB
:100968008A110A128A116A230A128A110A128A152E
:10097800D1270A128A110A128A11FB270A128A1130
:100988000A128A15B1270A128A110A128A158F27A4
:100998000A128A110A128A11C3220A128A110A1229
:1009A8008A111F200A128A110A128A11FE210A12BC
:1009B8008A11133083120313D5005508C80029087B
:1009C800CA002808C9002B300A128A1114210A12F9
:1009D8008A112B300A128A11A4270A128A110D30A3
:1009E8000A128A15C5270A128A110A300A128A15AC
:1009F800C5270A128A11063083120313D700133051
:100A0800D600AD30D500D50B072DD60B072DD70B4B
:100A1800072DD32C0A128A110C2883120313C00144
:100A2800F61F172D182D1F2DF509F609F50A0319BC
:100A3800F60AC001C00AF41F222D232D282DF30920
:100A4800F409F30A0319F40A7308740403192D2D21
:100A58002E2D5D2DBF01BF0A3C2D01300310F30D73
:100A6800F40DFF3E031D322D0130F7007708BF0754
:100A7800F41F3F2D402D312D74087602031D462D9D
:100A880073087502031C492D4A2D502D7308F50271
:100A98007408031CF603F60201300310F40CF30C7F
:100AA800FF3E031D512D0130BF02031D5C2D5D2D3E
:100AB800402D40080319612D622D672DF509F609AF
:100AC800F50A0319F60A7608F4007508F300080019
:100AD80083120313C001C101730874040319752D2F
:100AE800762DAD2DBF01BF0A842D01300310F30D03
:100AF800F40DFF3E031D7A2D0130F7007708BF077C
:100B0800F41F872D882D792D01300310C00DC10DDC
:100B1800FF3E031D892D74087602031D952D730869
:100B28007502031C982D992DA02D7308F5027408E1
:100B3800031CF603F602401401300310F40CF30C06
:100B4800FF3E031DA12D0130BF02031DAC2DAD2DAD
:100B5800882D4108F4004008F3000800F300731CD6
:100B6800B62DB72DBB2D831203130814BE2D831287
:100B780003130810F31CC12DC22DC42D8814C52DD4
:100B88008810731DC82DC92DCB2D0815CC2D081123
:100B9800F31DCF2DD02DD22D8815D32D8811731E7E
:100BA800D62DD72DD92D0816DA2D0812F31EDD2DD6
:100BB800DE2DE02D8816E12D8812731FE42DE52D1A
:100BC800E72D0817E82D0813F31FEB2DEC2DEE2D5C
:100BD8008817EF2D88130800831203134208430473
:100BE8000319F72DF82D272EC701C70A062E013045
:100BF8000310C20DC30DFF3E031DFC2D0130C600BE
:100C08004608C707C31F092E0A2EFB2D43084502B5
:100C1800031D102E42084402031C132E142E1A2EF4
:100C28004208C4024308031CC503C502013003106F
:100C3800C30CC20CFF3E031D1B2E0130C702031D4F
:100C4800262E272E0A2E4508C3004408C200080095
:100C5800831203138C1E312E322E612E8C120A122F
:100C68008A1587270A128A11F0007008FA002B30BB
:100C78007A06031D402E412E452E831203130614B7
:100C88004E2E2D307A06031D4A2E4B2E4E2E8312E1
:100C9800031306102A307A06031D532E542E582E9D
:100CA800831203138614612E2F307A06031D5D2EDE
:100CB8005E2E612E83120313861072088A00710E4D
:100CC8008300FE0E7E0E0900283083120313940061
:100CD800831603139101831203134C08F4004D0883
:100CE800F5004E08F6004F08F70002300310F40D27
:100CF800F50DF60DF70DFF3E031D7A2E7708C2009D
:100D08007608C1007508C0007408BF000030C6002E
:100D18007A30C5001230C4000030C3000A128A11AC
:100D280048240A128A11831203133F08FF3E8316D0
:100D38000313930094018715071608008312031301
:100D4800C8000A30F3000030F4004808C300C401AA
:100D58004308F5004408F6000A128A11DF230A1234
:100D68008A11730883120313C50004300310C50DDC
:100D7800FF3E031DBA2E0A30F3000030F400480885
:100D8800C600C7014608F5004708F6000A128A118E
:100D980011250A128A1173088312031345070800E4
:100DA8000A128A15DE270A128A118316031391156F
:100DB8000A128A15DE270A128A11831203131308EE
:100DC800F500F6017508BF007608C0000A128A15FA
:100DD800DE270A128A1173037404031DF42EF52EFC
:100DE800F92E831603139112FC2E83160313911602
:100DF8001116831203134008F4003F08F30008009B
:100E08008316031788018901831603138801831247
:100E180003138801831603138601831203138601C3
:100E2800831603138901831203138901831603139D
:100E38000F168F160F170B178C16831203138C12AD
:100E48008B170030CF000130CE008630CD00A030A7
:100E5800CC000A128A1168260A128A110800831225
:100E68000313BF00C001C1014E2F40083F07840093
:100E78000A128A1500200A128A110A128A11C22738
:100E88000A128A11013083120313C0070318C10A1A
:100E98000030C10740083F0784000A128A15002065
:100EA8000A128A11003A031D5A2F5B2F392F0800A6
:100EB80083120313C0004003031D632F642F702F98
:100EC8007708803EBF003F08C10041080A128A1116
:100ED80082270A128A11812F02304006031D752FBE
:100EE800762F812F7708C03EBF003F08C100410818
:100EF8000A128A1182270A128A110800F600831240
:100F08000313091076080A128A11B2250A128A11E7
:100F18008312031389140330F400F40B912F831206
:100F2800031389100330F400F40B982F0630F500F2
:100F38003030F400F40B9E2FF50B9E2F00000800B4
:100F4800F500F601B62F76087507F40074088400DA
:100F580000080A128A15C5270A128A110130F400FE
:100F68007408F60776087507F4007408840083137C
:100F78000008031DC02FC12FA72F0800F5008312FA
:100F88000313091475080A128A11B2250A128A1164
:100F98008312031389140330F400F40BD12F831246
:100FA800031389100330F400F40BD82F2130F40018
:100FB800F40BDC2F0800F7000F30770583120313BA
:100FC800BF000A30C0004008F3007708C1000430B1
:100FD8000310C10CFF3E031DEC2F41080A128A15AD
:100FE800EB270A128A11831203133F0708000C30FB
:100FF800831603139900080008308A000408840A3D
:1010080082070034013400340A3400346434003474
:10101800E8340334103427345434493445344D34D7
:0E10280050344F342034003425346434003406
:101F0E00831203138C1E8C2F8D2F872F1A08080017
:101F1E008312031398171813981218169A010800B3
:101F2E0064008001840A0406031900340406982F05
:101F3E000A128A15DE270A128A1583160313111444
:101F4E0008000A128A15DE270A128A158316031351
:101F5E0011150800831603139813181398161812E8
:101F6E0018119810181008000A128A15DE270A1286
:101F7E008A1583120313490893000800F300831691
:101F8E000313981CCB2FCC2FC62F73088312031369
:101F9E009900080000300A128A1182270A128A1547
:101FAE0001300A128A1182270A128A150800831636
:101FBE0003131419E32FE42FDE2F11081F39031D0D
:101FCE00E92FEA2FDE2F0800F600F501761CF02F20
:101FDE00F12FF52F7308F4007408F5070310F30DB5
:101FEE000310F60C7608031DFD2FFE2FED2F75083E
:021FFE000800D9
:04400E00D420FF3F7C
:00000001FF
