:020000040000FA
:060000000A128A110C280F
:10000800FE00030EF1000A08F2000A128A112C2CD5
:100018000A128A110F28F801F901FA018313203016
:1000280084003F300A128A11C6250A128A118301F8
:100038000A128A11092983120313D3004930CB000D
:100048004B08CE00F2282530540603192C282D28F9
:1000580039285408CB00530884004B0883138000C8
:100068000130CB004B08D307F228CF010130C80775
:10007800FF30480784000A128A1174250A128A116F
:10008800D400CB00CC014C08003A03194C28F228C4
:100098004B08003A03190429643A031957280D3A02
:1000A80003195728F2284E08840083130008D1004A
:1000B800840A0008D2000230CB004B08CE07D21FBA
:1000C8006628672870280330CB004B08CF04D10975
:1000D800D209D10A0319D20AD401D40A5408CB0090
:1000E8004B07013E84000A128A1174250A128A11EC
:1000F800CC000A128A1174250A128A11CD004D0803
:100108005202031D89284C08510203188C288D2897
:100118008E2898280130CB004B08D40705305406A8
:10012800031D9728982872284F08033903199D281A
:100138009E28A9282D30CB00530884004B08831330
:1001480080000130CB004B08D3075408CB004B0884
:10015800D000E9280A30C2000030C3005008CB00A4
:100168004B07013E84000A128A1174250A128A116B
:10017800F3000A128A1174250A128A11F40052082F
:10018800F6005108F5000A128A11AA230A128A11E8
:10019800740883120313C5007308C4000A128A1175
:1001A800F0230A128A11831203134208303ECC004E
:1001B8004C08D4005408CB00530884004B08831320
:1001C80080000130CB004B08D307FF30CB004B0831
:1001D800D007500A031DF128F228AE280130C807BD
:1001E800FF30480784000A128A1174250A128A11FE
:1001F800CB004B08D4005408031D032904292728E1
:10020800530884008313800108000A128A11042508
:100218000A128A110A128A11DE250A128A110A1292
:100228008A11AA250A128A110A128A11CE250A12DF
:100238008A110A128A11D0210A128A110A128A1105
:10024800BD250A128A11D03083120313C900003069
:10025800CA000A128A11A0250A128A1100308312D4
:100268000313C900CA000A128A11A0250A128A11AA
:100278000A128A11B4250A128A110A128A11BD2596
:100288000A128A11D13083120313C9000030CA0040
:100298000A128A11A0250A128A110130F3000030CF
:1002A800F4000A128A11D4240A128A1174088312DB
:1002B8000313A9007308A8000130F3000030F4000C
:1002C8000A128A11D4240A128A110A128A11B42530
:1002D8000A128A110A128A11BD250A128A11D1300E
:1002E80083120313C9000030CA000A128A11A0251C
:1002F8000A128A11003083120313C900CA000A12B5
:100308008A11A0250A128A110A128A11B4250A1222
:100318008A11033083120313D7000830D6007630D1
:10032800D500D50B9529D60B9529D70B9529000013
:100338008312031328080A128A1143250A128A1104
:1003480083120313D5005508AA000B30D5005508B1
:10035800C8002A08D600D7015608C9005708CA009D
:100368002B300A128A111F200A128A112B300A1206
:100378008A1125250A128A110D300A128A1194252C
:100388000A128A110A300A128A1194250A128A114D
:1003980022290A128A110C280A128A11BD250A126A
:1003A8008A11D03083120313C9000030CA000A1220
:1003B8008A11A0250A128A11003083120313C9007A
:1003C800CA000A128A11A0250A128A11831203137D
:1003D80028080A128A11A2240A128A118312031306
:1003E800CB00CC014B08C9004C08CA000A128A117C
:1003F800A0250A128A1100300A128A11A2240A12B0
:100408008A1183120313CB00CC014B08C9004C0896
:10041800CA000A128A11A0250A128A1100300A128B
:100428008A11A2240A128A1183120313CB00CC0169
:100438004B08C9004C08CA000A128A11A0250A12E2
:100448008A11013083120313C9000030CA000A124E
:100458008A11A0250A128A1100300A128A11A224D0
:100468000A128A1183120313CB00CC014B08C9006E
:100478004C08CA000A128A11A0250A128A110030F3
:100488000A128A11A2240A128A1183120313CB00BA
:10049800CC014B08C9004C08CA000A128A11A025D1
:1004A8000A128A1100300A128A11A2240A128A1129
:1004B80083120313CB00CC014B08C9004C08CA00B7
:1004C8000A128A11A0250A128A110A128A11B42561
:1004D8000A128A11033083120313CD000830CC00AE
:1004E8007630CB00CB0B762ACC0B762ACD0B762A2E
:1004F8000000080083120313C001F41F842A852A10
:100508008C2AF309F409F30A0319F40AC001C00A92
:10051800F61F8F2A902A992AF509F609F50A031970
:10052800F60A0130F7007708C006C101C201730856
:1005380074040319A02AA12AD82ABF01BF0AAF2A26
:1005480001300310F30DF40DFF3E031DA52A013001
:10055800F7007708BF07F41FB22AB32AA42A01308C
:100568000310C10DC20DFF3E031DB42A74087602A4
:10057800031DC02A73087502031CC32AC42ACB2A88
:100588007308F5027408031CF603F60241140130DF
:100598000310F40CF30CFF3E031DCC2A0130BF02FC
:1005A800031DD72AD82AB32A40080319DC2ADD2AD2
:1005B800E22AC109C209C10A0319C20A4208F400A1
:1005C8004108F3000800003083120313CA0000300A
:1005D800C9000030C8000030C70042084104400488
:1005E8003F040319F82AF92A462BCB01CB0A092B19
:1005F8000130F3000310BF0DC00DC10DC20DF30B88
:10060800FE2A0130F3007308CB07C21F0C2B0D2BF9
:10061800FC2A0130F3000310C70DC80DC90DCA0D1F
:10062800F30B0F2B42084602031D242B41084502F9
:10063800031D242B40084402031D242B3F084302BA
:10064800031C272B282B372B3F08C3024008031C09
:10065800400FC4024108031C410FC5024208031C95
:10066800420FC602471401300310C20CC10CC00C63
:10067800BF0CFF3E031D382B0130CB02031D452B59
:10068800462B0D2B4A08C2004908C1004808C00083
:100698004708BF00080083120313C001F61F552B3B
:1006A800562B5D2BF509F609F50A0319F60AC00160
:1006B800C00AF41F602B612B662BF309F409F30AB7
:1006C8000319F40A7308740403196B2B6C2B9B2B06
:1006D800BF01BF0A7A2B01300310F30DF40DFF3E62
:1006E800031D702B0130F7007708BF07F41F7D2B1F
:1006F8007E2B6F2B74087602031D842B73087502FA
:10070800031C872B882B8E2B7308F5027408031C97
:10071800F603F60201300310F40CF30CFF3E031D40
:100728008F2B0130BF02031D9A2B9B2B7E2B400879
:1007380003199F2BA02BA52BF509F609F50A031918
:10074800F60A7608F4007508F3000800831203130C
:10075800C001C101730874040319B32BB42BEB2B2C
:10076800BF01BF0AC22B01300310F30DF40DFF3E89
:10077800031DB82B0130F7007708BF07F41FC52BFE
:10078800C62BB72B01300310C00DC10DFF3E031D52
:10079800C72B74087602031DD32B73087502031C3C
:1007A800D62BD72BDE2B7308F5027408031CF6032F
:1007B800F602401401300310F40CF30CFF3E031D45
:1007C800DF2B0130BF02031DEA2BEB2BC62B4108A0
:1007D800F4004008F300080083120313420843049E
:1007E8000319F72BF82B272CC701C70A062C013051
:1007F8000310C20DC30DFF3E031DFC2B0130C600C4
:100808004608C707C31F092C0A2CFB2B43084502BF
:10081800031D102C42084402031C132C142C1A2C00
:100828004208C4024308031CC503C5020130031073
:10083800C30CC20CFF3E031D1B2C0130C702031D55
:10084800262C272C0A2C4508C3004408C20008009F
:10085800831203138C1E312C322C612C8C120A1239
:100868008A11D6250A128A11F0007008FA002B3076
:100878007A06031D402C412C452C831203130614C1
:100888004E2C2D307A06031D4A2C4B2C4E2C8312ED
:100898000313061031307A06031D532C542C582CA0
:1008A800831203138614612C32307A06031D5D2CE3
:1008B8005E2C612C83120313861072088A00710E55
:1008C8008300FE0E7E0E0900283083120313940065
:1008D800831603139101831203134C08F4004D0887
:1008E800F5004E08F6004F08F70002300310F40D2B
:1008F800F50DF60DF70DFF3E031D7A2C7708C200A3
:100908007608C1007508C0007408BF000030C60032
:100918007A30C5001230C4000030C3000A128A11B0
:10092800E7220A128A11831203133F08FF3E831637
:100938000313930094018715071608008312031305
:10094800C8000A30F3000030F4004808C300C401AE
:100958004308F5004408F6000A128A117E220A129A
:100968008A11730883120313C50004300310C50DE0
:10097800FF3E031DBA2C0A30F3000030F40048088B
:10098800C600C7014608F5004708F6000A128A1192
:100998004F230A128A1173088312031345070800AC
:1009A8000A128A1187250A128A11831603139115D0
:1009B8000A128A1187250A128A118312031313084F
:1009C800F500F6017508BF007608C0000A128A1102
:1009D80087250A128A1173037404031DF42CF52C5D
:1009E800F92C831603139112FC2C8316031391160A
:1009F8001116831203134008F4003F08F30008009F
:100A0800831603178801890183160313860183124D
:100A18000313860187010B17831603138C168312A1
:100A280003138C128B170030CF000130CE008630B4
:100A3800CD00A030CC000A128A1168240A128A114B
:100A48000800F500F601372D76087507F4007408DC
:100A5800840000080A128A1194250A128A110130AA
:100A6800F4007408F60776087507F4007408840023
:100A780083130008031D412D422D282D0800F7007F
:100A88000F30770583120313BF000A30C0004008F7
:100A9800F3007708C10004300310C10CFF3E031DAA
:100AA800502D41080A128A115F250A128A118312F1
:100AB80003133F070800F600F501761C642D652D29
:100AC800692D7308F4007408F5070310F30D03107B
:100AD800F60C7608031D712D722D612D750808001E
:100AE80005308A000408840A82070034013400347F
:100AF8000A34003464340034E834033410342734BE
:100B08002534643400348316031314198C2D8D2D69
:100B1800872D11081F39031D922D932D872D08004D
:100B2800F30083160313981C9A2D9B2D952D73089B
:100B380083120313990008000A128A1187250A12E2
:100B48008A118312031349089300080083160313BC
:100B580098131813981618121811981018100800DE
:100B68000A128A1187250A128A118316031311158E
:100B780008000A128A1187250A128A11831603139C
:100B88001114080064008001840A04060319003463
:100B98000406C72D831203139817181398121816F2
:100BA8009A010800831203138C1EDB2DDC2DD62D31
:0E0BB8001A0808000C30831603139900080079
:04400E00D620FF3F7A
:00000001FF
